{
  "address": "0x5FbDB2315678afecb367f032d93F642f64180aa3",
  "abi": [
    {
      "inputs": [
        {
          "internalType": "address payable",
          "name": "minter",
          "type": "address"
        }
      ],
      "stateMutability": "nonpayable",
      "type": "constructor"
    },
    {
      "anonymous": false,
      "inputs": [
        {
          "indexed": true,
          "internalType": "address",
          "name": "owner",
          "type": "address"
        },
        {
          "indexed": true,
          "internalType": "address",
          "name": "approved",
          "type": "address"
        },
        {
          "indexed": true,
          "internalType": "uint256",
          "name": "tokenId",
          "type": "uint256"
        }
      ],
      "name": "Approval",
      "type": "event"
    },
    {
      "anonymous": false,
      "inputs": [
        {
          "indexed": true,
          "internalType": "address",
          "name": "owner",
          "type": "address"
        },
        {
          "indexed": true,
          "internalType": "address",
          "name": "operator",
          "type": "address"
        },
        {
          "indexed": false,
          "internalType": "bool",
          "name": "approved",
          "type": "bool"
        }
      ],
      "name": "ApprovalForAll",
      "type": "event"
    },
    {
      "anonymous": false,
      "inputs": [
        {
          "indexed": true,
          "internalType": "bytes32",
          "name": "role",
          "type": "bytes32"
        },
        {
          "indexed": true,
          "internalType": "bytes32",
          "name": "previousAdminRole",
          "type": "bytes32"
        },
        {
          "indexed": true,
          "internalType": "bytes32",
          "name": "newAdminRole",
          "type": "bytes32"
        }
      ],
      "name": "RoleAdminChanged",
      "type": "event"
    },
    {
      "anonymous": false,
      "inputs": [
        {
          "indexed": true,
          "internalType": "bytes32",
          "name": "role",
          "type": "bytes32"
        },
        {
          "indexed": true,
          "internalType": "address",
          "name": "account",
          "type": "address"
        },
        {
          "indexed": true,
          "internalType": "address",
          "name": "sender",
          "type": "address"
        }
      ],
      "name": "RoleGranted",
      "type": "event"
    },
    {
      "anonymous": false,
      "inputs": [
        {
          "indexed": true,
          "internalType": "bytes32",
          "name": "role",
          "type": "bytes32"
        },
        {
          "indexed": true,
          "internalType": "address",
          "name": "account",
          "type": "address"
        },
        {
          "indexed": true,
          "internalType": "address",
          "name": "sender",
          "type": "address"
        }
      ],
      "name": "RoleRevoked",
      "type": "event"
    },
    {
      "anonymous": false,
      "inputs": [
        {
          "indexed": true,
          "internalType": "address",
          "name": "from",
          "type": "address"
        },
        {
          "indexed": true,
          "internalType": "address",
          "name": "to",
          "type": "address"
        },
        {
          "indexed": true,
          "internalType": "uint256",
          "name": "tokenId",
          "type": "uint256"
        }
      ],
      "name": "Transfer",
      "type": "event"
    },
    {
      "inputs": [],
      "name": "DEFAULT_ADMIN_ROLE",
      "outputs": [
        {
          "internalType": "bytes32",
          "name": "",
          "type": "bytes32"
        }
      ],
      "stateMutability": "view",
      "type": "function"
    },
    {
      "inputs": [],
      "name": "MINTER_ROLE",
      "outputs": [
        {
          "internalType": "bytes32",
          "name": "",
          "type": "bytes32"
        }
      ],
      "stateMutability": "view",
      "type": "function"
    },
    {
      "inputs": [
        {
          "internalType": "address",
          "name": "to",
          "type": "address"
        },
        {
          "internalType": "uint256",
          "name": "tokenId",
          "type": "uint256"
        }
      ],
      "name": "approve",
      "outputs": [],
      "stateMutability": "nonpayable",
      "type": "function"
    },
    {
      "inputs": [],
      "name": "availableToWithdraw",
      "outputs": [
        {
          "internalType": "uint256",
          "name": "",
          "type": "uint256"
        }
      ],
      "stateMutability": "view",
      "type": "function"
    },
    {
      "inputs": [
        {
          "internalType": "address",
          "name": "owner",
          "type": "address"
        }
      ],
      "name": "balanceOf",
      "outputs": [
        {
          "internalType": "uint256",
          "name": "",
          "type": "uint256"
        }
      ],
      "stateMutability": "view",
      "type": "function"
    },
    {
      "inputs": [
        {
          "internalType": "uint256",
          "name": "tokenId",
          "type": "uint256"
        }
      ],
      "name": "getApproved",
      "outputs": [
        {
          "internalType": "address",
          "name": "",
          "type": "address"
        }
      ],
      "stateMutability": "view",
      "type": "function"
    },
    {
      "inputs": [],
      "name": "getChainID",
      "outputs": [
        {
          "internalType": "uint256",
          "name": "",
          "type": "uint256"
        }
      ],
      "stateMutability": "view",
      "type": "function"
    },
    {
      "inputs": [
        {
          "internalType": "bytes32",
          "name": "role",
          "type": "bytes32"
        }
      ],
      "name": "getRoleAdmin",
      "outputs": [
        {
          "internalType": "bytes32",
          "name": "",
          "type": "bytes32"
        }
      ],
      "stateMutability": "view",
      "type": "function"
    },
    {
      "inputs": [
        {
          "internalType": "bytes32",
          "name": "role",
          "type": "bytes32"
        },
        {
          "internalType": "address",
          "name": "account",
          "type": "address"
        }
      ],
      "name": "grantRole",
      "outputs": [],
      "stateMutability": "nonpayable",
      "type": "function"
    },
    {
      "inputs": [
        {
          "internalType": "bytes32",
          "name": "role",
          "type": "bytes32"
        },
        {
          "internalType": "address",
          "name": "account",
          "type": "address"
        }
      ],
      "name": "hasRole",
      "outputs": [
        {
          "internalType": "bool",
          "name": "",
          "type": "bool"
        }
      ],
      "stateMutability": "view",
      "type": "function"
    },
    {
      "inputs": [
        {
          "internalType": "address",
          "name": "owner",
          "type": "address"
        },
        {
          "internalType": "address",
          "name": "operator",
          "type": "address"
        }
      ],
      "name": "isApprovedForAll",
      "outputs": [
        {
          "internalType": "bool",
          "name": "",
          "type": "bool"
        }
      ],
      "stateMutability": "view",
      "type": "function"
    },
    {
      "inputs": [
        {
          "components": [
            {
              "internalType": "string",
              "name": "name",
              "type": "string"
            },
            {
              "internalType": "string",
              "name": "uri",
              "type": "string"
            },
            {
              "internalType": "bytes",
              "name": "signature",
              "type": "bytes"
            }
          ],
          "internalType": "struct LazyNFT.NFTVoucher",
          "name": "voucher",
          "type": "tuple"
        }
      ],
      "name": "mint",
      "outputs": [],
      "stateMutability": "payable",
      "type": "function"
    },
    {
      "inputs": [],
      "name": "name",
      "outputs": [
        {
          "internalType": "string",
          "name": "",
          "type": "string"
        }
      ],
      "stateMutability": "view",
      "type": "function"
    },
    {
      "inputs": [
        {
          "internalType": "uint256",
          "name": "tokenId",
          "type": "uint256"
        }
      ],
      "name": "ownerOf",
      "outputs": [
        {
          "internalType": "address",
          "name": "",
          "type": "address"
        }
      ],
      "stateMutability": "view",
      "type": "function"
    },
    {
      "inputs": [
        {
          "internalType": "bytes32",
          "name": "role",
          "type": "bytes32"
        },
        {
          "internalType": "address",
          "name": "account",
          "type": "address"
        }
      ],
      "name": "renounceRole",
      "outputs": [],
      "stateMutability": "nonpayable",
      "type": "function"
    },
    {
      "inputs": [
        {
          "internalType": "bytes32",
          "name": "role",
          "type": "bytes32"
        },
        {
          "internalType": "address",
          "name": "account",
          "type": "address"
        }
      ],
      "name": "revokeRole",
      "outputs": [],
      "stateMutability": "nonpayable",
      "type": "function"
    },
    {
      "inputs": [
        {
          "internalType": "address",
          "name": "from",
          "type": "address"
        },
        {
          "internalType": "address",
          "name": "to",
          "type": "address"
        },
        {
          "internalType": "uint256",
          "name": "tokenId",
          "type": "uint256"
        }
      ],
      "name": "safeTransferFrom",
      "outputs": [],
      "stateMutability": "nonpayable",
      "type": "function"
    },
    {
      "inputs": [
        {
          "internalType": "address",
          "name": "from",
          "type": "address"
        },
        {
          "internalType": "address",
          "name": "to",
          "type": "address"
        },
        {
          "internalType": "uint256",
          "name": "tokenId",
          "type": "uint256"
        },
        {
          "internalType": "bytes",
          "name": "data",
          "type": "bytes"
        }
      ],
      "name": "safeTransferFrom",
      "outputs": [],
      "stateMutability": "nonpayable",
      "type": "function"
    },
    {
      "inputs": [
        {
          "internalType": "address",
          "name": "operator",
          "type": "address"
        },
        {
          "internalType": "bool",
          "name": "approved",
          "type": "bool"
        }
      ],
      "name": "setApprovalForAll",
      "outputs": [],
      "stateMutability": "nonpayable",
      "type": "function"
    },
    {
      "inputs": [
        {
          "internalType": "bytes4",
          "name": "interfaceId",
          "type": "bytes4"
        }
      ],
      "name": "supportsInterface",
      "outputs": [
        {
          "internalType": "bool",
          "name": "",
          "type": "bool"
        }
      ],
      "stateMutability": "view",
      "type": "function"
    },
    {
      "inputs": [],
      "name": "symbol",
      "outputs": [
        {
          "internalType": "string",
          "name": "",
          "type": "string"
        }
      ],
      "stateMutability": "view",
      "type": "function"
    },
    {
      "inputs": [],
      "name": "tokenCounter",
      "outputs": [
        {
          "internalType": "uint256",
          "name": "",
          "type": "uint256"
        }
      ],
      "stateMutability": "view",
      "type": "function"
    },
    {
      "inputs": [
        {
          "internalType": "uint256",
          "name": "tokenId",
          "type": "uint256"
        }
      ],
      "name": "tokenURI",
      "outputs": [
        {
          "internalType": "string",
          "name": "",
          "type": "string"
        }
      ],
      "stateMutability": "view",
      "type": "function"
    },
    {
      "inputs": [
        {
          "internalType": "address",
          "name": "from",
          "type": "address"
        },
        {
          "internalType": "address",
          "name": "to",
          "type": "address"
        },
        {
          "internalType": "uint256",
          "name": "tokenId",
          "type": "uint256"
        }
      ],
      "name": "transferFrom",
      "outputs": [],
      "stateMutability": "nonpayable",
      "type": "function"
    },
    {
      "inputs": [],
      "name": "withdraw",
      "outputs": [],
      "stateMutability": "nonpayable",
      "type": "function"
    }
  ],
  "transactionHash": "0x0dc0cb55fe4931cee683bec91d08e64cbecb6cbb5e3704c83c29cd838176d03a",
  "args": [
    "0xf39Fd6e51aad88F6F4ce6aB8827279cffFb92266"
  ],
  "numDeployments": 1,
  "solcInputHash": "05f073e37a76cca09ba034411c8b1512",
  "bytecode": "0x6101406040523480156200001257600080fd5b5060405162004ba338038062004ba3833981810160405281019062000038919062000500565b6040518060400160405280600f81526020017f4c617a794e46542d566f756368657200000000000000000000000000000000008152506040518060400160405280600181526020017f31000000000000000000000000000000000000000000000000000000000000008152506040518060400160405280600781526020017f4c617a794e4654000000000000000000000000000000000000000000000000008152506040518060400160405280600381526020017f4c415a0000000000000000000000000000000000000000000000000000000000815250816000908051906020019062000128929190620003e6565b50806001908051906020019062000141929190620003e6565b50505060008280519060200120905060008280519060200120905060007f8b73c3c69bb8fe3d512ecc4cf759cc79239f7b179b0ffacaa9a75d522b39400f90508260e081815250508161010081815250504660a08181525050620001ad8184846200022f60201b60201c565b608081815250503073ffffffffffffffffffffffffffffffffffffffff1660c08173ffffffffffffffffffffffffffffffffffffffff16815250508061012081815250505050505050620002287f9f2df0fed2c77648de5860a4cc508cd0818c85b8b8a1ab4ceeef8d981c8956a6826200026b60201b60201c565b506200064f565b600083838346306040516020016200024c9594939291906200058d565b6040516020818303038152906040528051906020012090509392505050565b6200027d82826200028160201b60201c565b5050565b6200029382826200037360201b60201c565b6200036f5760016007600084815260200190815260200160002060000160008373ffffffffffffffffffffffffffffffffffffffff1673ffffffffffffffffffffffffffffffffffffffff16815260200190815260200160002060006101000a81548160ff02191690831515021790555062000314620003de60201b60201c565b73ffffffffffffffffffffffffffffffffffffffff168173ffffffffffffffffffffffffffffffffffffffff16837f2f8788117e7eff1d82e926ec794901d17c78024a50270940304540a733656f0d60405160405180910390a45b5050565b60006007600084815260200190815260200160002060000160008373ffffffffffffffffffffffffffffffffffffffff1673ffffffffffffffffffffffffffffffffffffffff16815260200190815260200160002060009054906101000a900460ff16905092915050565b600033905090565b828054620003f49062000619565b90600052602060002090601f01602090048101928262000418576000855562000464565b82601f106200043357805160ff191683800117855562000464565b8280016001018555821562000464579182015b828111156200046357825182559160200191906001019062000446565b5b50905062000473919062000477565b5090565b5b808211156200049257600081600090555060010162000478565b5090565b600080fd5b600073ffffffffffffffffffffffffffffffffffffffff82169050919050565b6000620004c8826200049b565b9050919050565b620004da81620004bb565b8114620004e657600080fd5b50565b600081519050620004fa81620004cf565b92915050565b60006020828403121562000519576200051862000496565b5b60006200052984828501620004e9565b91505092915050565b6000819050919050565b620005478162000532565b82525050565b6000819050919050565b62000562816200054d565b82525050565b600062000575826200049b565b9050919050565b620005878162000568565b82525050565b600060a082019050620005a460008301886200053c565b620005b360208301876200053c565b620005c260408301866200053c565b620005d1606083018562000557565b620005e060808301846200057c565b9695505050505050565b7f4e487b7100000000000000000000000000000000000000000000000000000000600052602260045260246000fd5b600060028204905060018216806200063257607f821691505b60208210811415620006495762000648620005ea565b5b50919050565b60805160a05160c05160e05161010051610120516145046200069f60003960006128c301526000612905015260006128e4015260006128190152600061286f0152600061289801526145046000f3fe6080604052600436106101665760003560e01c80636352211e116100d1578063b88d4fde1161008a578063d539139311610064578063d53913931461053f578063d547741f1461056a578063e322ad2b14610593578063e985e9c5146105be57610166565b8063b88d4fde146104ae578063c87b56dd146104d7578063d082e3811461051457610166565b80636352211e1461037857806370a08231146103b557806391d14854146103f257806395d89b411461042f578063a217fddf1461045a578063a22cb4651461048557610166565b806326b33eb81161012357806326b33eb81461029f5780632f2ff15d146102bb57806336568abe146102e45780633ccfd60b1461030d57806342842e0e14610324578063564b81ef1461034d57610166565b806301ffc9a71461016b57806306fdde03146101a8578063081812fc146101d3578063095ea7b31461021057806323b872dd14610239578063248a9ca314610262575b600080fd5b34801561017757600080fd5b50610192600480360381019061018d9190612c17565b6105fb565b60405161019f9190612c5f565b60405180910390f35b3480156101b457600080fd5b506101bd61061d565b6040516101ca9190612d13565b60405180910390f35b3480156101df57600080fd5b506101fa60048036038101906101f59190612d6b565b6106af565b6040516102079190612dd9565b60405180910390f35b34801561021c57600080fd5b5061023760048036038101906102329190612e20565b6106f5565b005b34801561024557600080fd5b50610260600480360381019061025b9190612e60565b61080d565b005b34801561026e57600080fd5b5061028960048036038101906102849190612ee9565b61086d565b6040516102969190612f25565b60405180910390f35b6102b960048036038101906102b49190612f64565b61088d565b005b3480156102c757600080fd5b506102e260048036038101906102dd9190612fad565b6109c8565b005b3480156102f057600080fd5b5061030b60048036038101906103069190612fad565b6109e9565b005b34801561031957600080fd5b50610322610a6c565b005b34801561033057600080fd5b5061034b60048036038101906103469190612e60565b610bae565b005b34801561035957600080fd5b50610362610bce565b60405161036f9190612ffc565b60405180910390f35b34801561038457600080fd5b5061039f600480360381019061039a9190612d6b565b610bdb565b6040516103ac9190612dd9565b60405180910390f35b3480156103c157600080fd5b506103dc60048036038101906103d79190613017565b610c8d565b6040516103e99190612ffc565b60405180910390f35b3480156103fe57600080fd5b5061041960048036038101906104149190612fad565b610d45565b6040516104269190612c5f565b60405180910390f35b34801561043b57600080fd5b50610444610db0565b6040516104519190612d13565b60405180910390f35b34801561046657600080fd5b5061046f610e42565b60405161047c9190612f25565b60405180910390f35b34801561049157600080fd5b506104ac60048036038101906104a79190613070565b610e49565b005b3480156104ba57600080fd5b506104d560048036038101906104d091906131e5565b610e5f565b005b3480156104e357600080fd5b506104fe60048036038101906104f99190612d6b565b610ec1565b60405161050b9190612d13565b60405180910390f35b34801561052057600080fd5b50610529610fd4565b6040516105369190612ffc565b60405180910390f35b34801561054b57600080fd5b50610554610fda565b6040516105619190612f25565b60405180910390f35b34801561057657600080fd5b50610591600480360381019061058c9190612fad565b610ffe565b005b34801561059f57600080fd5b506105a861101f565b6040516105b59190612ffc565b60405180910390f35b3480156105ca57600080fd5b506105e560048036038101906105e09190613268565b611066565b6040516105f29190612c5f565b60405180910390f35b6000610606826110fa565b806106165750610615826111dc565b5b9050919050565b60606000805461062c906132d7565b80601f0160208091040260200160405190810160405280929190818152602001828054610658906132d7565b80156106a55780601f1061067a576101008083540402835291602001916106a5565b820191906000526020600020905b81548152906001019060200180831161068857829003601f168201915b5050505050905090565b60006106ba82611256565b6004600083815260200190815260200160002060009054906101000a900473ffffffffffffffffffffffffffffffffffffffff169050919050565b600061070082610bdb565b90508073ffffffffffffffffffffffffffffffffffffffff168373ffffffffffffffffffffffffffffffffffffffff161415610771576040517f08c379a00000000000000000000000000000000000000000000000000000000081526004016107689061337b565b60405180910390fd5b8073ffffffffffffffffffffffffffffffffffffffff166107906112a1565b73ffffffffffffffffffffffffffffffffffffffff1614806107bf57506107be816107b96112a1565b611066565b5b6107fe576040517f08c379a00000000000000000000000000000000000000000000000000000000081526004016107f59061340d565b60405180910390fd5b61080883836112a9565b505050565b61081e6108186112a1565b82611362565b61085d576040517f08c379a00000000000000000000000000000000000000000000000000000000081526004016108549061349f565b60405180910390fd5b6108688383836113f7565b505050565b600060076000838152602001908152602001600020600101549050919050565b60006108988261165e565b90506108d96040518060400160405280600881526020017f7369676e65723a20000000000000000000000000000000000000000000000000815250826116d0565b6109037f9f2df0fed2c77648de5860a4cc508cd0818c85b8b8a1ab4ceeef8d981c8956a633610d45565b610942576040517f08c379a000000000000000000000000000000000000000000000000000000000815260040161093990613531565b60405180910390fd5b6009600081548092919061095590613580565b91905055506109668160095461176c565b6109c460095483806020019061097c91906135d8565b8080601f016020809104026020016040519081016040528093929190818152602001838380828437600081840152601f19601f82011690508083019250505050505050611946565b5050565b6109d18261086d565b6109da816119ba565b6109e483836119ce565b505050565b6109f16112a1565b73ffffffffffffffffffffffffffffffffffffffff168173ffffffffffffffffffffffffffffffffffffffff1614610a5e576040517f08c379a0000000000000000000000000000000000000000000000000000000008152600401610a55906136ad565b60405180910390fd5b610a688282611aaf565b5050565b610a967f9f2df0fed2c77648de5860a4cc508cd0818c85b8b8a1ab4ceeef8d981c8956a633610d45565b610ad5576040517f08c379a0000000000000000000000000000000000000000000000000000000008152600401610acc9061373f565b60405180910390fd5b60003390506000600860008373ffffffffffffffffffffffffffffffffffffffff1673ffffffffffffffffffffffffffffffffffffffff1681526020019081526020016000205490506000600860008473ffffffffffffffffffffffffffffffffffffffff1673ffffffffffffffffffffffffffffffffffffffff168152602001908152602001600020819055508173ffffffffffffffffffffffffffffffffffffffff166108fc829081150290604051600060405180830381858888f19350505050158015610ba9573d6000803e3d6000fd5b505050565b610bc983838360405180602001604052806000815250610e5f565b505050565b6000804690508091505090565b6000806002600084815260200190815260200160002060009054906101000a900473ffffffffffffffffffffffffffffffffffffffff169050600073ffffffffffffffffffffffffffffffffffffffff168173ffffffffffffffffffffffffffffffffffffffff161415610c84576040517f08c379a0000000000000000000000000000000000000000000000000000000008152600401610c7b906137ab565b60405180910390fd5b80915050919050565b60008073ffffffffffffffffffffffffffffffffffffffff168273ffffffffffffffffffffffffffffffffffffffff161415610cfe576040517f08c379a0000000000000000000000000000000000000000000000000000000008152600401610cf59061383d565b60405180910390fd5b600360008373ffffffffffffffffffffffffffffffffffffffff1673ffffffffffffffffffffffffffffffffffffffff168152602001908152602001600020549050919050565b60006007600084815260200190815260200160002060000160008373ffffffffffffffffffffffffffffffffffffffff1673ffffffffffffffffffffffffffffffffffffffff16815260200190815260200160002060009054906101000a900460ff16905092915050565b606060018054610dbf906132d7565b80601f0160208091040260200160405190810160405280929190818152602001828054610deb906132d7565b8015610e385780601f10610e0d57610100808354040283529160200191610e38565b820191906000526020600020905b815481529060010190602001808311610e1b57829003601f168201915b5050505050905090565b6000801b81565b610e5b610e546112a1565b8383611b91565b5050565b610e70610e6a6112a1565b83611362565b610eaf576040517f08c379a0000000000000000000000000000000000000000000000000000000008152600401610ea69061349f565b60405180910390fd5b610ebb84848484611cfe565b50505050565b6060610ecc82611256565b6000600660008481526020019081526020016000208054610eec906132d7565b80601f0160208091040260200160405190810160405280929190818152602001828054610f18906132d7565b8015610f655780601f10610f3a57610100808354040283529160200191610f65565b820191906000526020600020905b815481529060010190602001808311610f4857829003601f168201915b505050505090506000610f76611d5a565b9050600081511415610f8c578192505050610fcf565b600082511115610fc1578082604051602001610fa9929190613899565b60405160208183030381529060405292505050610fcf565b610fca84611d71565b925050505b919050565b60095481565b7f9f2df0fed2c77648de5860a4cc508cd0818c85b8b8a1ab4ceeef8d981c8956a681565b6110078261086d565b611010816119ba565b61101a8383611aaf565b505050565b6000600860003373ffffffffffffffffffffffffffffffffffffffff1673ffffffffffffffffffffffffffffffffffffffff16815260200190815260200160002054905090565b6000600560008473ffffffffffffffffffffffffffffffffffffffff1673ffffffffffffffffffffffffffffffffffffffff16815260200190815260200160002060008373ffffffffffffffffffffffffffffffffffffffff1673ffffffffffffffffffffffffffffffffffffffff16815260200190815260200160002060009054906101000a900460ff16905092915050565b60007f80ac58cd000000000000000000000000000000000000000000000000000000007bffffffffffffffffffffffffffffffffffffffffffffffffffffffff1916827bffffffffffffffffffffffffffffffffffffffffffffffffffffffff191614806111c557507f5b5e139f000000000000000000000000000000000000000000000000000000007bffffffffffffffffffffffffffffffffffffffffffffffffffffffff1916827bffffffffffffffffffffffffffffffffffffffffffffffffffffffff1916145b806111d557506111d482611dd9565b5b9050919050565b60007f7965db0b000000000000000000000000000000000000000000000000000000007bffffffffffffffffffffffffffffffffffffffffffffffffffffffff1916827bffffffffffffffffffffffffffffffffffffffffffffffffffffffff1916148061124f575061124e826110fa565b5b9050919050565b61125f81611e43565b61129e576040517f08c379a0000000000000000000000000000000000000000000000000000000008152600401611295906137ab565b60405180910390fd5b50565b600033905090565b816004600083815260200190815260200160002060006101000a81548173ffffffffffffffffffffffffffffffffffffffff021916908373ffffffffffffffffffffffffffffffffffffffff160217905550808273ffffffffffffffffffffffffffffffffffffffff1661131c83610bdb565b73ffffffffffffffffffffffffffffffffffffffff167f8c5be1e5ebec7d5bd14f71427d1e84f3dd0314c0f7b2291e5b200ac8c7c3b92560405160405180910390a45050565b60008061136e83610bdb565b90508073ffffffffffffffffffffffffffffffffffffffff168473ffffffffffffffffffffffffffffffffffffffff1614806113b057506113af8185611066565b5b806113ee57508373ffffffffffffffffffffffffffffffffffffffff166113d6846106af565b73ffffffffffffffffffffffffffffffffffffffff16145b91505092915050565b8273ffffffffffffffffffffffffffffffffffffffff1661141782610bdb565b73ffffffffffffffffffffffffffffffffffffffff161461146d576040517f08c379a00000000000000000000000000000000000000000000000000000000081526004016114649061392f565b60405180910390fd5b600073ffffffffffffffffffffffffffffffffffffffff168273ffffffffffffffffffffffffffffffffffffffff1614156114dd576040517f08c379a00000000000000000000000000000000000000000000000000000000081526004016114d4906139c1565b60405180910390fd5b6114e8838383611eaf565b6114f36000826112a9565b6001600360008573ffffffffffffffffffffffffffffffffffffffff1673ffffffffffffffffffffffffffffffffffffffff168152602001908152602001600020600082825461154391906139e1565b925050819055506001600360008473ffffffffffffffffffffffffffffffffffffffff1673ffffffffffffffffffffffffffffffffffffffff168152602001908152602001600020600082825461159a9190613a15565b92505081905550816002600083815260200190815260200160002060006101000a81548173ffffffffffffffffffffffffffffffffffffffff021916908373ffffffffffffffffffffffffffffffffffffffff160217905550808273ffffffffffffffffffffffffffffffffffffffff168473ffffffffffffffffffffffffffffffffffffffff167fddf252ad1be2c89b69c2b068fc378daa952ba7f163c4a11628f55a4df523b3ef60405160405180910390a4611659838383611eb4565b505050565b60008061166a83611eb9565b90506116c8818480604001906116809190613a6b565b8080601f016020809104026020016040519081016040528093929190818152602001838380828437600081840152601f19601f82011690508083019250505050505050611f5f565b915050919050565b61176882826040516024016116e6929190613ace565b6040516020818303038152906040527f319af333000000000000000000000000000000000000000000000000000000007bffffffffffffffffffffffffffffffffffffffffffffffffffffffff19166020820180517bffffffffffffffffffffffffffffffffffffffffffffffffffffffff8381831617835250505050611f86565b5050565b600073ffffffffffffffffffffffffffffffffffffffff168273ffffffffffffffffffffffffffffffffffffffff1614156117dc576040517f08c379a00000000000000000000000000000000000000000000000000000000081526004016117d390613b4a565b60405180910390fd5b6117e581611e43565b15611825576040517f08c379a000000000000000000000000000000000000000000000000000000000815260040161181c90613bb6565b60405180910390fd5b61183160008383611eaf565b6001600360008473ffffffffffffffffffffffffffffffffffffffff1673ffffffffffffffffffffffffffffffffffffffff16815260200190815260200160002060008282546118819190613a15565b92505081905550816002600083815260200190815260200160002060006101000a81548173ffffffffffffffffffffffffffffffffffffffff021916908373ffffffffffffffffffffffffffffffffffffffff160217905550808273ffffffffffffffffffffffffffffffffffffffff16600073ffffffffffffffffffffffffffffffffffffffff167fddf252ad1be2c89b69c2b068fc378daa952ba7f163c4a11628f55a4df523b3ef60405160405180910390a461194260008383611eb4565b5050565b61194f82611e43565b61198e576040517f08c379a000000000000000000000000000000000000000000000000000000000815260040161198590613c48565b60405180910390fd5b806006600084815260200190815260200160002090805190602001906119b5929190612b08565b505050565b6119cb816119c66112a1565b611faf565b50565b6119d88282610d45565b611aab5760016007600084815260200190815260200160002060000160008373ffffffffffffffffffffffffffffffffffffffff1673ffffffffffffffffffffffffffffffffffffffff16815260200190815260200160002060006101000a81548160ff021916908315150217905550611a506112a1565b73ffffffffffffffffffffffffffffffffffffffff168173ffffffffffffffffffffffffffffffffffffffff16837f2f8788117e7eff1d82e926ec794901d17c78024a50270940304540a733656f0d60405160405180910390a45b5050565b611ab98282610d45565b15611b8d5760006007600084815260200190815260200160002060000160008373ffffffffffffffffffffffffffffffffffffffff1673ffffffffffffffffffffffffffffffffffffffff16815260200190815260200160002060006101000a81548160ff021916908315150217905550611b326112a1565b73ffffffffffffffffffffffffffffffffffffffff168173ffffffffffffffffffffffffffffffffffffffff16837ff6391f5c32d9c69d2a47ea670b442974b53935d1edc7fd64eb21e047a839171b60405160405180910390a45b5050565b8173ffffffffffffffffffffffffffffffffffffffff168373ffffffffffffffffffffffffffffffffffffffff161415611c00576040517f08c379a0000000000000000000000000000000000000000000000000000000008152600401611bf790613cb4565b60405180910390fd5b80600560008573ffffffffffffffffffffffffffffffffffffffff1673ffffffffffffffffffffffffffffffffffffffff16815260200190815260200160002060008473ffffffffffffffffffffffffffffffffffffffff1673ffffffffffffffffffffffffffffffffffffffff16815260200190815260200160002060006101000a81548160ff0219169083151502179055508173ffffffffffffffffffffffffffffffffffffffff168373ffffffffffffffffffffffffffffffffffffffff167f17307eab39ab6107e8899845ad3d59bd9653f200f220920489ca2b5937696c3183604051611cf19190612c5f565b60405180910390a3505050565b611d098484846113f7565b611d158484848461204c565b611d54576040517f08c379a0000000000000000000000000000000000000000000000000000000008152600401611d4b90613d46565b60405180910390fd5b50505050565b606060405180602001604052806000815250905090565b6060611d7c82611256565b6000611d86611d5a565b90506000815111611da65760405180602001604052806000815250611dd1565b80611db0846121e3565b604051602001611dc1929190613899565b6040516020818303038152906040525b915050919050565b60007f01ffc9a7000000000000000000000000000000000000000000000000000000007bffffffffffffffffffffffffffffffffffffffffffffffffffffffff1916827bffffffffffffffffffffffffffffffffffffffffffffffffffffffff1916149050919050565b60008073ffffffffffffffffffffffffffffffffffffffff166002600084815260200190815260200160002060009054906101000a900473ffffffffffffffffffffffffffffffffffffffff1673ffffffffffffffffffffffffffffffffffffffff1614159050919050565b505050565b505050565b6000611f587f202916e08a9aa4a29b3d5b7aba46684a6fa0cc2aaad01939b5f9976c54de8a66838060000190611eef91906135d8565b604051611efd929190613d96565b6040518091039020848060200190611f1591906135d8565b604051611f23929190613d96565b6040518091039020604051602001611f3d93929190613daf565b60405160208183030381529060405280519060200120612344565b9050919050565b6000806000611f6e858561235e565b91509150611f7b816123e1565b819250505092915050565b60008151905060006a636f6e736f6c652e6c6f679050602083016000808483855afa5050505050565b611fb98282610d45565b61204857611fde8173ffffffffffffffffffffffffffffffffffffffff1660146125b6565b611fec8360001c60206125b6565b604051602001611ffd929190613e7e565b6040516020818303038152906040526040517f08c379a000000000000000000000000000000000000000000000000000000000815260040161203f9190612d13565b60405180910390fd5b5050565b600061206d8473ffffffffffffffffffffffffffffffffffffffff166127f2565b156121d6578373ffffffffffffffffffffffffffffffffffffffff1663150b7a026120966112a1565b8786866040518563ffffffff1660e01b81526004016120b89493929190613f0d565b602060405180830381600087803b1580156120d257600080fd5b505af192505050801561210357506040513d601f19601f820116820180604052508101906121009190613f6e565b60015b612186573d8060008114612133576040519150601f19603f3d011682016040523d82523d6000602084013e612138565b606091505b5060008151141561217e576040517f08c379a000000000000000000000000000000000000000000000000000000000815260040161217590613d46565b60405180910390fd5b805181602001fd5b63150b7a0260e01b7bffffffffffffffffffffffffffffffffffffffffffffffffffffffff1916817bffffffffffffffffffffffffffffffffffffffffffffffffffffffff1916149150506121db565b600190505b949350505050565b6060600082141561222b576040518060400160405280600181526020017f3000000000000000000000000000000000000000000000000000000000000000815250905061233f565b600082905060005b6000821461225d57808061224690613580565b915050600a826122569190613fca565b9150612233565b60008167ffffffffffffffff811115612279576122786130ba565b5b6040519080825280601f01601f1916602001820160405280156122ab5781602001600182028036833780820191505090505b5090505b60008514612338576001826122c491906139e1565b9150600a856122d39190613ffb565b60306122df9190613a15565b60f81b8183815181106122f5576122f461402c565b5b60200101907effffffffffffffffffffffffffffffffffffffffffffffffffffffffffffff1916908160001a905350600a856123319190613fca565b94506122af565b8093505050505b919050565b6000612357612351612815565b8361292f565b9050919050565b6000806041835114156123a05760008060006020860151925060408601519150606086015160001a905061239487828585612962565b945094505050506123da565b6040835114156123d15760008060208501519150604085015190506123c6868383612a6f565b9350935050506123da565b60006002915091505b9250929050565b600060048111156123f5576123f461405b565b5b8160048111156124085761240761405b565b5b1415612413576125b3565b600160048111156124275761242661405b565b5b81600481111561243a5761243961405b565b5b141561247b576040517f08c379a0000000000000000000000000000000000000000000000000000000008152600401612472906140d6565b60405180910390fd5b6002600481111561248f5761248e61405b565b5b8160048111156124a2576124a161405b565b5b14156124e3576040517f08c379a00000000000000000000000000000000000000000000000000000000081526004016124da90614142565b60405180910390fd5b600360048111156124f7576124f661405b565b5b81600481111561250a5761250961405b565b5b141561254b576040517f08c379a0000000000000000000000000000000000000000000000000000000008152600401612542906141d4565b60405180910390fd5b60048081111561255e5761255d61405b565b5b8160048111156125715761257061405b565b5b14156125b2576040517f08c379a00000000000000000000000000000000000000000000000000000000081526004016125a990614266565b60405180910390fd5b5b50565b6060600060028360026125c99190614286565b6125d39190613a15565b67ffffffffffffffff8111156125ec576125eb6130ba565b5b6040519080825280601f01601f19166020018201604052801561261e5781602001600182028036833780820191505090505b5090507f3000000000000000000000000000000000000000000000000000000000000000816000815181106126565761265561402c565b5b60200101907effffffffffffffffffffffffffffffffffffffffffffffffffffffffffffff1916908160001a9053507f7800000000000000000000000000000000000000000000000000000000000000816001815181106126ba576126b961402c565b5b60200101907effffffffffffffffffffffffffffffffffffffffffffffffffffffffffffff1916908160001a905350600060018460026126fa9190614286565b6127049190613a15565b90505b60018111156127a4577f3031323334353637383961626364656600000000000000000000000000000000600f8616601081106127465761274561402c565b5b1a60f81b82828151811061275d5761275c61402c565b5b60200101907effffffffffffffffffffffffffffffffffffffffffffffffffffffffffffff1916908160001a905350600485901c94508061279d906142e0565b9050612707565b50600084146127e8576040517f08c379a00000000000000000000000000000000000000000000000000000000081526004016127df90614356565b60405180910390fd5b8091505092915050565b6000808273ffffffffffffffffffffffffffffffffffffffff163b119050919050565b60007f000000000000000000000000000000000000000000000000000000000000000073ffffffffffffffffffffffffffffffffffffffff163073ffffffffffffffffffffffffffffffffffffffff1614801561289157507f000000000000000000000000000000000000000000000000000000000000000046145b156128be577f0000000000000000000000000000000000000000000000000000000000000000905061292c565b6129297f00000000000000000000000000000000000000000000000000000000000000007f00000000000000000000000000000000000000000000000000000000000000007f0000000000000000000000000000000000000000000000000000000000000000612ace565b90505b90565b600082826040516020016129449291906143e3565b60405160208183030381529060405280519060200120905092915050565b6000807f7fffffffffffffffffffffffffffffff5d576e7357a4501ddfe92f46681b20a08360001c111561299d576000600391509150612a66565b601b8560ff16141580156129b55750601c8560ff1614155b156129c7576000600491509150612a66565b6000600187878787604051600081526020016040526040516129ec9493929190614436565b6020604051602081039080840390855afa158015612a0e573d6000803e3d6000fd5b505050602060405103519050600073ffffffffffffffffffffffffffffffffffffffff168173ffffffffffffffffffffffffffffffffffffffff161415612a5d57600060019250925050612a66565b80600092509250505b94509492505050565b60008060007f7fffffffffffffffffffffffffffffffffffffffffffffffffffffffffffffff60001b841690506000601b60ff8660001c901c612ab29190613a15565b9050612ac087828885612962565b935093505050935093915050565b60008383834630604051602001612ae995949392919061447b565b6040516020818303038152906040528051906020012090509392505050565b828054612b14906132d7565b90600052602060002090601f016020900481019282612b365760008555612b7d565b82601f10612b4f57805160ff1916838001178555612b7d565b82800160010185558215612b7d579182015b82811115612b7c578251825591602001919060010190612b61565b5b509050612b8a9190612b8e565b5090565b5b80821115612ba7576000816000905550600101612b8f565b5090565b6000604051905090565b600080fd5b600080fd5b60007fffffffff0000000000000000000000000000000000000000000000000000000082169050919050565b612bf481612bbf565b8114612bff57600080fd5b50565b600081359050612c1181612beb565b92915050565b600060208284031215612c2d57612c2c612bb5565b5b6000612c3b84828501612c02565b91505092915050565b60008115159050919050565b612c5981612c44565b82525050565b6000602082019050612c746000830184612c50565b92915050565b600081519050919050565b600082825260208201905092915050565b60005b83811015612cb4578082015181840152602081019050612c99565b83811115612cc3576000848401525b50505050565b6000601f19601f8301169050919050565b6000612ce582612c7a565b612cef8185612c85565b9350612cff818560208601612c96565b612d0881612cc9565b840191505092915050565b60006020820190508181036000830152612d2d8184612cda565b905092915050565b6000819050919050565b612d4881612d35565b8114612d5357600080fd5b50565b600081359050612d6581612d3f565b92915050565b600060208284031215612d8157612d80612bb5565b5b6000612d8f84828501612d56565b91505092915050565b600073ffffffffffffffffffffffffffffffffffffffff82169050919050565b6000612dc382612d98565b9050919050565b612dd381612db8565b82525050565b6000602082019050612dee6000830184612dca565b92915050565b612dfd81612db8565b8114612e0857600080fd5b50565b600081359050612e1a81612df4565b92915050565b60008060408385031215612e3757612e36612bb5565b5b6000612e4585828601612e0b565b9250506020612e5685828601612d56565b9150509250929050565b600080600060608486031215612e7957612e78612bb5565b5b6000612e8786828701612e0b565b9350506020612e9886828701612e0b565b9250506040612ea986828701612d56565b9150509250925092565b6000819050919050565b612ec681612eb3565b8114612ed157600080fd5b50565b600081359050612ee381612ebd565b92915050565b600060208284031215612eff57612efe612bb5565b5b6000612f0d84828501612ed4565b91505092915050565b612f1f81612eb3565b82525050565b6000602082019050612f3a6000830184612f16565b92915050565b600080fd5b600060608284031215612f5b57612f5a612f40565b5b81905092915050565b600060208284031215612f7a57612f79612bb5565b5b600082013567ffffffffffffffff811115612f9857612f97612bba565b5b612fa484828501612f45565b91505092915050565b60008060408385031215612fc457612fc3612bb5565b5b6000612fd285828601612ed4565b9250506020612fe385828601612e0b565b9150509250929050565b612ff681612d35565b82525050565b60006020820190506130116000830184612fed565b92915050565b60006020828403121561302d5761302c612bb5565b5b600061303b84828501612e0b565b91505092915050565b61304d81612c44565b811461305857600080fd5b50565b60008135905061306a81613044565b92915050565b6000806040838503121561308757613086612bb5565b5b600061309585828601612e0b565b92505060206130a68582860161305b565b9150509250929050565b600080fd5b600080fd5b7f4e487b7100000000000000000000000000000000000000000000000000000000600052604160045260246000fd5b6130f282612cc9565b810181811067ffffffffffffffff82111715613111576131106130ba565b5b80604052505050565b6000613124612bab565b905061313082826130e9565b919050565b600067ffffffffffffffff8211156131505761314f6130ba565b5b61315982612cc9565b9050602081019050919050565b82818337600083830152505050565b600061318861318384613135565b61311a565b9050828152602081018484840111156131a4576131a36130b5565b5b6131af848285613166565b509392505050565b600082601f8301126131cc576131cb6130b0565b5b81356131dc848260208601613175565b91505092915050565b600080600080608085870312156131ff576131fe612bb5565b5b600061320d87828801612e0b565b945050602061321e87828801612e0b565b935050604061322f87828801612d56565b925050606085013567ffffffffffffffff8111156132505761324f612bba565b5b61325c878288016131b7565b91505092959194509250565b6000806040838503121561327f5761327e612bb5565b5b600061328d85828601612e0b565b925050602061329e85828601612e0b565b9150509250929050565b7f4e487b7100000000000000000000000000000000000000000000000000000000600052602260045260246000fd5b600060028204905060018216806132ef57607f821691505b60208210811415613303576133026132a8565b5b50919050565b7f4552433732313a20617070726f76616c20746f2063757272656e74206f776e6560008201527f7200000000000000000000000000000000000000000000000000000000000000602082015250565b6000613365602183612c85565b915061337082613309565b604082019050919050565b6000602082019050818103600083015261339481613358565b9050919050565b7f4552433732313a20617070726f76652063616c6c6572206973206e6f7420746f60008201527f6b656e206f776e6572206e6f7220617070726f76656420666f7220616c6c0000602082015250565b60006133f7603e83612c85565b91506134028261339b565b604082019050919050565b60006020820190508181036000830152613426816133ea565b9050919050565b7f4552433732313a2063616c6c6572206973206e6f7420746f6b656e206f776e6560008201527f72206e6f7220617070726f766564000000000000000000000000000000000000602082015250565b6000613489602e83612c85565b91506134948261342d565b604082019050919050565b600060208201905081810360008301526134b88161347c565b9050919050565b7f5369676e617475726520696e76616c6964206f7220756e617574686f72697a6560008201527f6400000000000000000000000000000000000000000000000000000000000000602082015250565b600061351b602183612c85565b9150613526826134bf565b604082019050919050565b6000602082019050818103600083015261354a8161350e565b9050919050565b7f4e487b7100000000000000000000000000000000000000000000000000000000600052601160045260246000fd5b600061358b82612d35565b91507fffffffffffffffffffffffffffffffffffffffffffffffffffffffffffffffff8214156135be576135bd613551565b5b600182019050919050565b600080fd5b600080fd5b600080fd5b600080833560016020038436030381126135f5576135f46135c9565b5b80840192508235915067ffffffffffffffff821115613617576136166135ce565b5b602083019250600182023603831315613633576136326135d3565b5b509250929050565b7f416363657373436f6e74726f6c3a2063616e206f6e6c792072656e6f756e636560008201527f20726f6c657320666f722073656c660000000000000000000000000000000000602082015250565b6000613697602f83612c85565b91506136a28261363b565b604082019050919050565b600060208201905081810360008301526136c68161368a565b9050919050565b7f4f6e6c7920617574686f72697a6564206d696e746572732063616e207769746860008201527f6472617700000000000000000000000000000000000000000000000000000000602082015250565b6000613729602483612c85565b9150613734826136cd565b604082019050919050565b600060208201905081810360008301526137588161371c565b9050919050565b7f4552433732313a20696e76616c696420746f6b656e2049440000000000000000600082015250565b6000613795601883612c85565b91506137a08261375f565b602082019050919050565b600060208201905081810360008301526137c481613788565b9050919050565b7f4552433732313a2061646472657373207a65726f206973206e6f74206120766160008201527f6c6964206f776e65720000000000000000000000000000000000000000000000602082015250565b6000613827602983612c85565b9150613832826137cb565b604082019050919050565b600060208201905081810360008301526138568161381a565b9050919050565b600081905092915050565b600061387382612c7a565b61387d818561385d565b935061388d818560208601612c96565b80840191505092915050565b60006138a58285613868565b91506138b18284613868565b91508190509392505050565b7f4552433732313a207472616e736665722066726f6d20696e636f72726563742060008201527f6f776e6572000000000000000000000000000000000000000000000000000000602082015250565b6000613919602583612c85565b9150613924826138bd565b604082019050919050565b600060208201905081810360008301526139488161390c565b9050919050565b7f4552433732313a207472616e7366657220746f20746865207a65726f2061646460008201527f7265737300000000000000000000000000000000000000000000000000000000602082015250565b60006139ab602483612c85565b91506139b68261394f565b604082019050919050565b600060208201905081810360008301526139da8161399e565b9050919050565b60006139ec82612d35565b91506139f783612d35565b925082821015613a0a57613a09613551565b5b828203905092915050565b6000613a2082612d35565b9150613a2b83612d35565b9250827fffffffffffffffffffffffffffffffffffffffffffffffffffffffffffffffff03821115613a6057613a5f613551565b5b828201905092915050565b60008083356001602003843603038112613a8857613a876135c9565b5b80840192508235915067ffffffffffffffff821115613aaa57613aa96135ce565b5b602083019250600182023603831315613ac657613ac56135d3565b5b509250929050565b60006040820190508181036000830152613ae88185612cda565b9050613af76020830184612dca565b9392505050565b7f4552433732313a206d696e7420746f20746865207a65726f2061646472657373600082015250565b6000613b34602083612c85565b9150613b3f82613afe565b602082019050919050565b60006020820190508181036000830152613b6381613b27565b9050919050565b7f4552433732313a20746f6b656e20616c7265616479206d696e74656400000000600082015250565b6000613ba0601c83612c85565b9150613bab82613b6a565b602082019050919050565b60006020820190508181036000830152613bcf81613b93565b9050919050565b7f45524337323155524953746f726167653a2055524920736574206f66206e6f6e60008201527f6578697374656e7420746f6b656e000000000000000000000000000000000000602082015250565b6000613c32602e83612c85565b9150613c3d82613bd6565b604082019050919050565b60006020820190508181036000830152613c6181613c25565b9050919050565b7f4552433732313a20617070726f766520746f2063616c6c657200000000000000600082015250565b6000613c9e601983612c85565b9150613ca982613c68565b602082019050919050565b60006020820190508181036000830152613ccd81613c91565b9050919050565b7f4552433732313a207472616e7366657220746f206e6f6e20455243373231526560008201527f63656976657220696d706c656d656e7465720000000000000000000000000000602082015250565b6000613d30603283612c85565b9150613d3b82613cd4565b604082019050919050565b60006020820190508181036000830152613d5f81613d23565b9050919050565b600081905092915050565b6000613d7d8385613d66565b9350613d8a838584613166565b82840190509392505050565b6000613da3828486613d71565b91508190509392505050565b6000606082019050613dc46000830186612f16565b613dd16020830185612f16565b613dde6040830184612f16565b949350505050565b7f416363657373436f6e74726f6c3a206163636f756e7420000000000000000000600082015250565b6000613e1c60178361385d565b9150613e2782613de6565b601782019050919050565b7f206973206d697373696e6720726f6c6520000000000000000000000000000000600082015250565b6000613e6860118361385d565b9150613e7382613e32565b601182019050919050565b6000613e8982613e0f565b9150613e958285613868565b9150613ea082613e5b565b9150613eac8284613868565b91508190509392505050565b600081519050919050565b600082825260208201905092915050565b6000613edf82613eb8565b613ee98185613ec3565b9350613ef9818560208601612c96565b613f0281612cc9565b840191505092915050565b6000608082019050613f226000830187612dca565b613f2f6020830186612dca565b613f3c6040830185612fed565b8181036060830152613f4e8184613ed4565b905095945050505050565b600081519050613f6881612beb565b92915050565b600060208284031215613f8457613f83612bb5565b5b6000613f9284828501613f59565b91505092915050565b7f4e487b7100000000000000000000000000000000000000000000000000000000600052601260045260246000fd5b6000613fd582612d35565b9150613fe083612d35565b925082613ff057613fef613f9b565b5b828204905092915050565b600061400682612d35565b915061401183612d35565b92508261402157614020613f9b565b5b828206905092915050565b7f4e487b7100000000000000000000000000000000000000000000000000000000600052603260045260246000fd5b7f4e487b7100000000000000000000000000000000000000000000000000000000600052602160045260246000fd5b7f45434453413a20696e76616c6964207369676e61747572650000000000000000600082015250565b60006140c0601883612c85565b91506140cb8261408a565b602082019050919050565b600060208201905081810360008301526140ef816140b3565b9050919050565b7f45434453413a20696e76616c6964207369676e6174757265206c656e67746800600082015250565b600061412c601f83612c85565b9150614137826140f6565b602082019050919050565b6000602082019050818103600083015261415b8161411f565b9050919050565b7f45434453413a20696e76616c6964207369676e6174757265202773272076616c60008201527f7565000000000000000000000000000000000000000000000000000000000000602082015250565b60006141be602283612c85565b91506141c982614162565b604082019050919050565b600060208201905081810360008301526141ed816141b1565b9050919050565b7f45434453413a20696e76616c6964207369676e6174757265202776272076616c60008201527f7565000000000000000000000000000000000000000000000000000000000000602082015250565b6000614250602283612c85565b915061425b826141f4565b604082019050919050565b6000602082019050818103600083015261427f81614243565b9050919050565b600061429182612d35565b915061429c83612d35565b9250817fffffffffffffffffffffffffffffffffffffffffffffffffffffffffffffffff04831182151516156142d5576142d4613551565b5b828202905092915050565b60006142eb82612d35565b915060008214156142ff576142fe613551565b5b600182039050919050565b7f537472696e67733a20686578206c656e67746820696e73756666696369656e74600082015250565b6000614340602083612c85565b915061434b8261430a565b602082019050919050565b6000602082019050818103600083015261436f81614333565b9050919050565b7f1901000000000000000000000000000000000000000000000000000000000000600082015250565b60006143ac60028361385d565b91506143b782614376565b600282019050919050565b6000819050919050565b6143dd6143d882612eb3565b6143c2565b82525050565b60006143ee8261439f565b91506143fa82856143cc565b60208201915061440a82846143cc565b6020820191508190509392505050565b600060ff82169050919050565b6144308161441a565b82525050565b600060808201905061444b6000830187612f16565b6144586020830186614427565b6144656040830185612f16565b6144726060830184612f16565b95945050505050565b600060a0820190506144906000830188612f16565b61449d6020830187612f16565b6144aa6040830186612f16565b6144b76060830185612fed565b6144c46080830184612dca565b969550505050505056fea264697066735822122000c36f72e8396d77b679863d7b5a80016d34cfc5f2b9ebf4da8f20f5bf933e4964736f6c63430008090033",
  "devdoc": {
    "kind": "dev",
    "methods": {
      "approve(address,uint256)": {
        "details": "See {IERC721-approve}."
      },
      "balanceOf(address)": {
        "details": "See {IERC721-balanceOf}."
      },
      "getApproved(uint256)": {
        "details": "See {IERC721-getApproved}."
      },
      "getChainID()": {
        "details": "This is used to workaround an issue with ganache returning different values from the on-chain chainid() function and  the eth_chainId RPC method. See https://github.com/protocol/nft-website/issues/121 for context."
      },
      "getRoleAdmin(bytes32)": {
        "details": "Returns the admin role that controls `role`. See {grantRole} and {revokeRole}. To change a role's admin, use {_setRoleAdmin}."
      },
      "grantRole(bytes32,address)": {
        "details": "Grants `role` to `account`. If `account` had not been already granted `role`, emits a {RoleGranted} event. Requirements: - the caller must have ``role``'s admin role. May emit a {RoleGranted} event."
      },
      "hasRole(bytes32,address)": {
        "details": "Returns `true` if `account` has been granted `role`."
      },
      "isApprovedForAll(address,address)": {
        "details": "See {IERC721-isApprovedForAll}."
      },
      "mint((string,string,bytes))": {
        "params": {
          "voucher": "A signed NFTVoucher that describes the NFT to be redeemed."
        }
      },
      "name()": {
        "details": "See {IERC721Metadata-name}."
      },
      "ownerOf(uint256)": {
        "details": "See {IERC721-ownerOf}."
      },
      "renounceRole(bytes32,address)": {
        "details": "Revokes `role` from the calling account. Roles are often managed via {grantRole} and {revokeRole}: this function's purpose is to provide a mechanism for accounts to lose their privileges if they are compromised (such as when a trusted device is misplaced). If the calling account had been revoked `role`, emits a {RoleRevoked} event. Requirements: - the caller must be `account`. May emit a {RoleRevoked} event."
      },
      "revokeRole(bytes32,address)": {
        "details": "Revokes `role` from `account`. If `account` had been granted `role`, emits a {RoleRevoked} event. Requirements: - the caller must have ``role``'s admin role. May emit a {RoleRevoked} event."
      },
      "safeTransferFrom(address,address,uint256)": {
        "details": "See {IERC721-safeTransferFrom}."
      },
      "safeTransferFrom(address,address,uint256,bytes)": {
        "details": "See {IERC721-safeTransferFrom}."
      },
      "setApprovalForAll(address,bool)": {
        "details": "See {IERC721-setApprovalForAll}."
      },
      "symbol()": {
        "details": "See {IERC721Metadata-symbol}."
      },
      "tokenURI(uint256)": {
        "details": "See {IERC721Metadata-tokenURI}."
      },
      "transferFrom(address,address,uint256)": {
        "details": "See {IERC721-transferFrom}."
      }
    },
    "version": 1
  },
  "userdoc": {
    "kind": "user",
    "methods": {
      "availableToWithdraw()": {
        "notice": "Retuns the amount of Ether available to the caller to withdraw."
      },
      "getChainID()": {
        "notice": "Returns the chain id of the current blockchain."
      },
      "mint((string,string,bytes))": {
        "notice": "Redeems an NFTVoucher for an actual NFT, creating it in the process."
      },
      "withdraw()": {
        "notice": "Transfers all pending withdrawal balance to the caller. Reverts if the caller is not an authorized minter."
      }
    },
    "version": 1
  },
  "storageLayout": {
    "storage": [
      {
        "astId": 418,
        "contract": "contracts/LazyNFT.sol:LazyNFT",
        "label": "_name",
        "offset": 0,
        "slot": "0",
        "type": "t_string_storage"
      },
      {
        "astId": 420,
        "contract": "contracts/LazyNFT.sol:LazyNFT",
        "label": "_symbol",
        "offset": 0,
        "slot": "1",
        "type": "t_string_storage"
      },
      {
        "astId": 424,
        "contract": "contracts/LazyNFT.sol:LazyNFT",
        "label": "_owners",
        "offset": 0,
        "slot": "2",
        "type": "t_mapping(t_uint256,t_address)"
      },
      {
        "astId": 428,
        "contract": "contracts/LazyNFT.sol:LazyNFT",
        "label": "_balances",
        "offset": 0,
        "slot": "3",
        "type": "t_mapping(t_address,t_uint256)"
      },
      {
        "astId": 432,
        "contract": "contracts/LazyNFT.sol:LazyNFT",
        "label": "_tokenApprovals",
        "offset": 0,
        "slot": "4",
        "type": "t_mapping(t_uint256,t_address)"
      },
      {
        "astId": 438,
        "contract": "contracts/LazyNFT.sol:LazyNFT",
        "label": "_operatorApprovals",
        "offset": 0,
        "slot": "5",
        "type": "t_mapping(t_address,t_mapping(t_address,t_bool))"
      },
      {
        "astId": 1406,
        "contract": "contracts/LazyNFT.sol:LazyNFT",
        "label": "_tokenURIs",
        "offset": 0,
        "slot": "6",
        "type": "t_mapping(t_uint256,t_string_storage)"
      },
      {
        "astId": 24,
        "contract": "contracts/LazyNFT.sol:LazyNFT",
        "label": "_roles",
        "offset": 0,
        "slot": "7",
        "type": "t_mapping(t_bytes32,t_struct(RoleData)19_storage)"
      },
      {
        "astId": 2715,
        "contract": "contracts/LazyNFT.sol:LazyNFT",
        "label": "pendingWithdrawals",
        "offset": 0,
        "slot": "8",
        "type": "t_mapping(t_address,t_uint256)"
      },
      {
        "astId": 2746,
        "contract": "contracts/LazyNFT.sol:LazyNFT",
        "label": "tokenCounter",
        "offset": 0,
        "slot": "9",
        "type": "t_uint256"
      }
    ],
    "types": {
      "t_address": {
        "encoding": "inplace",
        "label": "address",
        "numberOfBytes": "20"
      },
      "t_bool": {
        "encoding": "inplace",
        "label": "bool",
        "numberOfBytes": "1"
      },
      "t_bytes32": {
        "encoding": "inplace",
        "label": "bytes32",
        "numberOfBytes": "32"
      },
      "t_mapping(t_address,t_bool)": {
        "encoding": "mapping",
        "key": "t_address",
        "label": "mapping(address => bool)",
        "numberOfBytes": "32",
        "value": "t_bool"
      },
      "t_mapping(t_address,t_mapping(t_address,t_bool))": {
        "encoding": "mapping",
        "key": "t_address",
        "label": "mapping(address => mapping(address => bool))",
        "numberOfBytes": "32",
        "value": "t_mapping(t_address,t_bool)"
      },
      "t_mapping(t_address,t_uint256)": {
        "encoding": "mapping",
        "key": "t_address",
        "label": "mapping(address => uint256)",
        "numberOfBytes": "32",
        "value": "t_uint256"
      },
      "t_mapping(t_bytes32,t_struct(RoleData)19_storage)": {
        "encoding": "mapping",
        "key": "t_bytes32",
        "label": "mapping(bytes32 => struct AccessControl.RoleData)",
        "numberOfBytes": "32",
        "value": "t_struct(RoleData)19_storage"
      },
      "t_mapping(t_uint256,t_address)": {
        "encoding": "mapping",
        "key": "t_uint256",
        "label": "mapping(uint256 => address)",
        "numberOfBytes": "32",
        "value": "t_address"
      },
      "t_mapping(t_uint256,t_string_storage)": {
        "encoding": "mapping",
        "key": "t_uint256",
        "label": "mapping(uint256 => string)",
        "numberOfBytes": "32",
        "value": "t_string_storage"
      },
      "t_string_storage": {
        "encoding": "bytes",
        "label": "string",
        "numberOfBytes": "32"
      },
      "t_struct(RoleData)19_storage": {
        "encoding": "inplace",
        "label": "struct AccessControl.RoleData",
        "members": [
          {
            "astId": 16,
            "contract": "contracts/LazyNFT.sol:LazyNFT",
            "label": "members",
            "offset": 0,
            "slot": "0",
            "type": "t_mapping(t_address,t_bool)"
          },
          {
            "astId": 18,
            "contract": "contracts/LazyNFT.sol:LazyNFT",
            "label": "adminRole",
            "offset": 0,
            "slot": "1",
            "type": "t_bytes32"
          }
        ],
        "numberOfBytes": "64"
      },
      "t_uint256": {
        "encoding": "inplace",
        "label": "uint256",
        "numberOfBytes": "32"
      }
    }
  }
}